:060000000A128A110C280F
:10000800FE00030EF1000A08F2000A128A111328F2
:100018000A128A110F2883010A128A1158280B1C08
:100028001628172833288312031306181C281D289E
:100038002728061C202821281D280130F0007008D8
:1000480085070B10332886182A282B283328861C66
:100058002E282F282B28013085020B1033287208F0
:100068008A00710E8300FE0E7E0E090083160317A8
:1000780088018901831603138501870183120313FD
:10008800850187018316031306148614811315143A
:1000980095148B178B15161496140B100F088F399F
:1000A80060388F000F1408000A128A113A200A12C9
:0A00B8008A115D280A128A110C2833
:08400000FF3FFF3FFF3FFF3FC0
:04400E00D420FF3F7C
:00000001FF
